:020000040800F2
:1000000000280020C90B00086D0B0008730B0008C6
:10001000790B00087F0B0008850B0008000000002A
:100020000000000000000000000000008B0B000832
:10003000970B000800000000A30B0008AF0B00089E
:10004000110C0008110C0008110C0008110C00081C
:10005000110C0008110C0008110C0008110C00080C
:10006000110C0008110C0008110C0008110C0008FC
:10007000110C0008110C0008110C0008110C0008EC
:10008000110C0008110C0008110C0008110C0008DC
:10009000110C0008110C0008110C0008110C0008CC
:1000A000110C0008110C0008110C0008110C0008BC
:1000B000110C0008110C000800000000110C0008D1
:1000C000110C00080000000000000000110C0008E6
:1000D00000000000110C0008110C000800000000D6
:1000E000110C0008110C0008110C000800000000A1
:1000F0000000000000000000000000000000000000
:0C01000000000000000000005FF808F1A3
:10010C0010B5054C237833B9044B13B10448AFF345
:10011C0000800123237010BD0C00002000000000A3
:10012C00341A000808B5034B1BB103490348AFF35D
:10013C00008008BD0000000010000020341A0008E8
:10014C0080B582B000AF7860C7F800C07B68092B1F
:10015C0000F2BC8101A252F823F000BF910100080B
:10016C00E5010008390200088D020008E1020008D0
:10017C003503000889030008DD030008310400087A
:10018C008504000800228021D34801F021F80022C8
:10019C004FF48071D04801F01BF800224FF400712D
:1001AC00CD4801F015F800224FF48061CA4801F0E7
:1001BC000FF800224FF40061C74801F009F8002243
:1001CC004FF48051C44801F003F801224FF4005160
:1001DC00C14800F0FDFF7AE101228021BE4800F009
:1001EC00F7FF00224FF48071BB4800F0F1FF0022B2
:1001FC004FF40071B84800F0EBFF01224FF480611E
:10020C00B54800F0E5FF01224FF40061B24800F060
:10021C00DFFF01224FF48051AF4800F0D9FF0122DB
:10022C004FF40051AC4800F0D3FF50E10022802184
:10023C00A94800F0CDFF00224FF48071A64800F0D1
:10024C00C7FF01224FF40071A34800F0C1FF002248
:10025C004FF48061A04800F0BBFF00224FF4006116
:10026C009D4800F0B5FF01224FF480519A4800F0F0
:10027C00AFFF00224FF40051974800F0A9FF26E190
:10028C0000228021944800F0A3FF00224FF48071DB
:10029C00914800F09DFF00224FF400718E4800F051
:1002AC0097FF00224FF480618B4800F091FF0122F0
:1002BC004FF40061884800F08BFF01224FF480510D
:1002CC00854800F085FF00224FF40051824800F071
:1002DC007FFFFCE0012280217F4800F079FF0022A3
:1002EC004FF480717C4800F073FF00224FF40071D2
:1002FC00794800F06DFF01224FF48061764800F0E0
:10030C0067FF01224FF40061734800F061FF002287
:10031C004FF48051704800F05BFF00224FF4005105
:10032C006D4800F055FFD2E0002280216A4800F0B1
:10033C004FFF01224FF48071674800F049FF002203
:10034C004FF40071644800F043FF00224FF48061C9
:10035C00614800F03DFF01224FF400615E4800F05F
:10036C0037FF00224FF480515B4800F031FF002230
:10037C004FF40051584800F02BFFA8E000228021D8
:10038C00554800F025FF01224FF48071524800F0CF
:10039C001FFF00224FF400714F4800F019FF00229C
:1003AC004FF480614C4800F013FF00224FF40061C1
:1003BC00494800F00DFF00224FF48051464800F0F0
:1003CC0007FF00224FF40051434800F001FF7EE08C
:1003DC0000228021404800F0FBFE00224FF4807187
:1003EC003D4800F0F5FE00224FF400713A4800F051
:1003FC00EFFE01224FF48061374800F0E9FE012244
:10040C004FF40061344800F0E3FE01224FF48051B8
:10041C00314800F0DDFE01224FF400512E4800F06F
:10042C00D7FE54E0002280212B4800F0D1FE0022A0
:10043C004FF48071284800F0CBFE00224FF400717D
:10044C00254800F0C5FE00224FF48061224800F0E0
:10045C00BFFE00224FF400611F4800F0B9FE0022DD
:10046C004FF480511C4800F0B3FE00224FF40051B1
:10047C00194800F0ADFE2AE000228021164800F059
:10048C00A7FE00224FF48071134800F0A1FE002259
:10049C004FF40071104800F09BFE00224FF4806175
:1004AC000D4800F095FE01224FF400610A4800F05F
:1004BC008FFE00224FF48051074800F089FE002285
:1004CC004FF40051044800F083FE00E000BF00BF71
:1004DC000837BD4680BD00BF000C014080B588B018
:1004EC0000AF07F128033B6000F08EFB00F070FAC0
:1004FC0000F0AAFA0023FB610523BB6102237B6198
:10050C0003233B610523FB600223BB6003237B6059
:10051C0001220221644800F05BFE012204216248A2
:10052C0000F056FE012240215F4800F051FE0122EE
:10053C0020215D4800F04CFEBB69002B47DD0122F9
:10054C000221594800F044FE01220421564800F0D3
:10055C003FFE01224021544800F03AFE01222021A6
:10056C00514800F035FE002208214F4800F030FEC3
:10057C00002210214C4800F02BFE012240214A4859
:10058C0000F026FE7B68FB617B68002B0EDC0122F1
:10059C001021454800F01CFE00222021424800F0AA
:1005AC0017FEBB68FB61BB68013BBB603B469C46CE
:1005BC00B86900F07BF83B469C46F869FFF7C0FD34
:1005CC007B68013B7B60BB69013BBB6158E03B69CD
:1005DC00002B29DD3B469C46386900F067F83B460A
:1005EC009C46F868FFF7ACFD012220212E4800F054
:1005FC00EFFD012208212C4800F0EAFD0122042124
:10060C00294800F0E5FD00220221274800F0E0FD1A
:10061C003B69013B3B6100224021234800F0D8FD9F
:10062C00FB68013BFB602BE07B69002B28DD3B4624
:10063C009C46786900F03AF83B469C46F868FFF710
:10064C007FFD01220821184800F0C2FD0122022181
:10065C00154800F0BDFD01222021134800F0B8FD23
:10066C0000220421104800F0B3FD7B69013B7B6143
:10067C00002240210C4800F0ABFDFB68013BFB6005
:10068C007B69002B0BD10523BB6102237B61032308
:10069C003B610523FB600223BB6003237B604FF4AB
:1006AC007A7000F013FB47E70008014080B582B078
:1006BC0000AF7860C7F800C07B68092B00F280811E
:1006CC0001A252F823F000BFFD0600084507000800
:1006DC008D070008D50700081D08000865080008EC
:1006EC00AD080008F50800083D0900088509000858
:1006FC0000220121B54800F06BFD00220221B34815
:10070C0000F066FD00220421B04800F061FD0022DB
:10071C000821AE4800F05CFD00221021AB4800F02F
:10072C0057FD00222021A94800F052FD0122402152
:10073C00A64800F04DFD44E101220121A34800F040
:10074C0047FD00220221A14800F042FD00220421B5
:10075C009E4800F03DFD012208219C4800F038FD28
:10076C0001221021994800F033FD012220219748E5
:10077C0000F02EFD01224021944800F029FD20E1DB
:10078C0000220121914800F023FD002202218F4814
:10079C0000F01EFD012204218C4800F019FD0022FE
:1007AC0008218A4800F014FD00221021874800F02F
:1007BC000FFD01222021854800F00AFD0022402176
:1007CC00824800F005FDFCE0002201217F4800F08A
:1007DC00FFFC002202217D4800F0FAFC00220421DB
:1007EC007A4800F0F5FC00220821784800F0F0FC73
:1007FC0001221021754800F0EBFC012220217348E6
:10080C0000F0E6FC00224021704800F0E1FCD8E04A
:10081C00012201216D4800F0DBFC002202216B4813
:10082C0000F0D6FC00220421684800F0D1FC012223
:10083C000821664800F0CCFC01221021634800F02E
:10084C00C7FC00222021614800F0C2FC002240219C
:10085C005E4800F0BDFCB4E0002201215B4800F0D2
:10086C00B7FC01220221594800F0B2FC00220421FD
:10087C00564800F0ADFC00220821544800F0A8FCBA
:10088C0001221021514800F0A3FC002220214F48E6
:10089C0000F09EFC002240214C4800F099FC90E0B6
:1008AC0000220121494800F093FC01220221474813
:1008BC0000F08EFC00220421444800F089FC002248
:1008CC000821424800F084FC002210213F4800F02F
:1008DC007FFC002220213D4800F07AFC00224021C0
:1008EC003A4800F075FC6CE000220121374800F01A
:1008FC006FFC00220221354800F06AFC0022042122
:10090C00324800F065FC01220821304800F060FC00
:10091C00012210212D4800F05BFC012220212B48E4
:10092C0000F056FC01224021284800F051FC48E020
:10093C0000220121254800F04BFC00220221234813
:10094C0000F046FC00220421204800F041FC00226B
:10095C0008211E4800F03CFC002210211B4800F02E
:10096C0037FC00222021194800F032FC00224021E3
:10097C00164800F02DFC24E000220121134800F061
:10098C0027FC00220221114800F022FC0022042145
:10099C000E4800F01DFC002208210C4800F018FC49
:1009AC0001221021094800F013FC002220210748E5
:1009BC0000F00EFC00224021044800F009FC00E08D
:1009CC0000BF00BF0837BD4680BD00BF000C014012
:1009DC0080B590B000AF07F118032822002118460B
:1009EC0001F01AF83B1D00221A605A609A60DA6016
:1009FC001A610223BB610123BB621023FB6200233B
:100A0C007B6307F11803184600F0FAFB0346002B32
:100A1C0001D000F06DF80F237B600023BB60002336
:100A2C00FB6000233B6100237B613B1D00211846CA
:100A3C0000F066FE0346002B01D000F059F800BF11
:100A4C004037BD4680BD000080B586B000AF07F1D1
:100A5C00080300221A605A609A60DA60214B9B6985
:100A6C00204A43F0040393611E4B9B6903F004037B
:100A7C007B607B681B4B9B691A4A43F008039361AC
:100A8C00184B9B6903F008033B603B6800227E21F6
:100A9C00154800F09DFB002243F6FF71134800F04F
:100AAC0097FB7E23BB600123FB6000233B61022389
:100ABC007B6107F1080319460B4800F00FFA43F667
:100ACC00FF73BB600123FB6000233B6102237B614E
:100ADC0007F108031946054800F000FA00BF183763
:100AEC00BD4680BD0010024000080140000C0140D2
:100AFC0080B400AF72B600BFFEE7000080B485B0D2
:100B0C0000AF154B9B69144A43F001039361124BE0
:100B1C009B6903F00103BB60BB680F4BDB690E4A9A
:100B2C0043F08053D3610C4BDB6903F080537B6043
:100B3C007B680A4B5B68FB60FB6823F0E063FB603F
:100B4C00FB6843F08063FB60044AFB68536000BFA2
:100B5C001437BD4680BC70470010024000000140B5
:100B6C0080B400AFFEE780B400AFFEE780B400AF06
:100B7C00FEE780B400AFFEE780B400AFFEE780B4C0
:100B8C0000AF00BFBD4680BC704780B400AF00BF53
:100B9C00BD4680BC704780B400AF00BFBD4680BC72
:100BAC00704780B500AF00F075F800BF80BD80B411
:100BBC0000AF00BFBD4680BC704700000C480D491B
:100BCC000D4A002302E0D458C4500433C4188C429C
:100BDC00F9D30A4A0A4C002301E013600432A24202
:100BEC00FBD3FFF7E4FF00F0F3FEFFF777FC704751
:100BFC00000000200C000020741A00080C000020DB
:100C0C002C000020FEE7000080B500AF084B1B68ED
:100C1C00074A43F010031360032000F02BF90F2058
:100C2C0000F008F8FFF76AFF0023184680BD00BFEC
:100C3C000020024080B582B000AF7860124B1A6879
:100C4C00124B1B7819464FF47A73B3FBF1F3B2FBDA
:100C5C00F3F3184600F035F90346002B01D00123BD
:100C6C000EE07B680F2B0AD8002279684FF0FF301A
:100C7C0000F00BF9064A7B681360002300E00123A7
:100C8C0018460837BD4680BD000000200800002033
:100C9C000400002080B400AF054B1B781A46054BAE
:100CAC001B681344034A136000BFBD4680BC7047E9
:100CBC00080000202800002080B400AF024B1B6805
:100CCC001846BD4680BC70472800002080B584B013
:100CDC0000AF7860FFF7F0FFB8607B68FB60FB68E3
:100CEC00B3F1FF3F05D00A4B1B781A46FB6813443F
:100CFC00FB6000BFFFF7E0FF0246BB68D31AFA683F
:100D0C009A42F7D800BF00BF1037BD4680BD00BF68
:100D1C000800002080B485B000AF78607B6803F0D9
:100D2C000703FB600C4BDB68BB60BA684FF6FF0334
:100D3C001340BB60FB681A02BB68134343F0BF63EC
:100D4C0043F40033BB60044ABB68D36000BF143764
:100D5C00BD4680BC704700BF00ED00E080B400AF22
:100D6C00044BDB681B0A03F007031846BD4680BC26
:100D7C00704700BF00ED00E080B483B000AF0346C5
:100D8C003960FB7197F90730002B0ADB3B68DAB24C
:100D9C000C4997F907301201D2B20B4483F80023A7
:100DAC000AE03B68DAB20849FB7903F00F03043B15
:100DBC001201D2B20B441A7600BF0C37BD4680BC70
:100DCC00704700BF00E100E000ED00E080B489B0A6
:100DDC0000AFF860B9607A60FB6803F00703FB6151
:100DEC00FB69C3F10703042B28BF0423BB61FB6918
:100DFC000433062B02D9FB69033B00E000237B6123
:100E0C004FF0FF32BB6902FA03F3DA43BB681A40B6
:100E1C007B699A404FF0FF317B6901FA03F3D943A8
:100E2C007B680B40134318462437BD4680BC704783
:100E3C0080B582B000AF78607B68013BB3F1807FF6
:100E4C0001D301230FE00A4A7B68013B53600F2159
:100E5C004FF0FF30FFF790FF054B00229A60044BD8
:100E6C0007221A60002318460837BD4680BD00BF14
:100E7C0010E000E080B582B000AF78607868FFF7D2
:100E8C0049FF00BF0837BD4680BD80B586B000AFB6
:100E9C000346B9607A60FB7300237B61FFF75EFF4A
:100EAC0078617A68B9687869FFF790FF024697F91C
:100EBC000F3011461846FFF75FFF00BF1837BD46CD
:100ECC0080BD80B582B000AF78607868FFF7B0FF66
:100EDC00034618460837BD4680BD000080B48BB071
:100EEC0000AF7860396000237B6200233B6248E1ED
:100EFC0001227B6A02FA03F3FB613B681B68FA6907
:100F0C001340BB61BA69FB699A4240F037813B6878
:100F1C005B68A34A93425ED0A14A934275D8A14A1A
:100F2C00934258D09F4A93426FD89F4A934252D0D3
:100F3C009D4A934269D89D4A93424CD09B4A934216
:100F4C0063D89B4A934246D0994A93425DD8122B60
:100F5C002AD8122B59D801A252F823F0E30F00081B
:100F6C00BD0F0008CF0F0008111000081710000863
:100F7C0017100008171000081710000817100008A9
:100F8C001710000817100008171000081710000899
:100F9C001710000817100008171000081710000889
:100FAC00C50F0008D90F0008824A934213D02CE0D9
:100FBC003B68DB683B6229E03B68DB6804333B62DF
:100FCC0024E03B68DB6808333B621FE03B68DB686E
:100FDC000C333B621AE03B689B68002B02D1042364
:100FEC003B6213E03B689B68012B05D108233B62F5
:100FFC007B68FA691A6109E008233B627B68FA692D
:10100C005A6103E000233B6200E000BFBB69FF2B89
:10101C0001D87B6801E07B6804337B61BB69FF2BE3
:10102C0002D87B6A9B0002E07B6A083B9B003B6119
:10103C007B691A680F213B6901FA03F3DB431A4001
:10104C00396A3B6901FA03F31A437B691A603B68FE
:10105C005B6803F08053002B00F09080564B9B692B
:10106C00554A43F001039361534B9B6903F0010311
:10107C00BB60BB68514A7B6A9B08023352F8233031
:10108C00FB607B6A03F003039B000F2202FA03F35D
:10109C00DB43FA681340FB607B68494A93420DD0EE
:1010AC007B68484A934207D07B68474A934201D1F8
:1010BC00022304E0032302E0012300E000237A6A08
:1010CC0002F0030292009340FA681343FB603B4921
:1010DC007B6A9B080233FA6841F823203B685B6803
:1010EC0003F48033002B06D0384B1A683749BB69A0
:1010FC0013430B6006E0354B1A68BB69DB4333497D
:10110C0013400B603B685B6803F40033002B06D084
:10111C002E4B5A682D49BB6913434B6006E02B4B91
:10112C005A68BB69DB43294913404B603B685B68D9
:10113C0003F48013002B06D0244B9A682349BB6917
:10114C0013438B6006E0214B9A68BB69DB431F4954
:10115C0013408B603B685B6803F40013002B06D0D4
:10116C001A4BDA681949BB691343CB6006E0174B7D
:10117C00DA68BB69DB4315491340CB607B6A0133EA
:10118C007B623B681A687B6A22FA03F3002B7FF4BC
:10119C00AFAE00BF00BF2C37BD4680BC704700BF50
:1011AC00000032100000311000002210000021104D
:1011BC00000012100000111000100240000001404D
:1011CC0000080140000C01400010014000040140E7
:1011DC0080B483B000AF78600B467B8013467B7085
:1011EC007B78002B03D07A887B681A6103E07B88BC
:1011FC001A047B681A6100BF0C37BD4680BC70476F
:10120C0080B586B000AF78607B68002B01D10123DC
:10121C006CE27B681B6803F00103002B00F08780F5
:10122C00924B5B6803F00C03042B0CD08F4B5B6868
:10123C0003F00C03082B12D18C4B5B6803F4803346
:10124C00B3F5803F0BD1894B1B6803F40033002BA3
:10125C006CD07B685B68002B68D1012346E27B680D
:10126C005B68B3F5803F06D1804B1B687F4A43F423
:10127C00803313602EE07B685B68002B0CD17B4BBA
:10128C001B687A4A23F480331360784B1B68774AC7
:10129C0023F4802313601DE07B685B68B3F5A02FFB
:1012AC000CD1724B1B68714A43F4802313606F4B53
:1012BC001B686E4A43F4803313600BE06B4B1B6866
:1012CC006A4A23F480331360684B1B68674A23F423
:1012DC00802313607B685B68002B13D0FFF7ECFC5A
:1012EC00386108E0FFF7E8FC02463B69D31A642B2F
:1012FC0001D90323FAE15D4B1B6803F40033002B87
:10130C00F0D014E0FFF7D8FC386108E0FFF7D4FC0C
:10131C0002463B69D31A642B01D90323E6E1534BF4
:10132C001B6803F40033002BF0D100E000BF7B6896
:10133C001B6803F00203002B63D04C4B5B6803F07B
:10134C000C03002B0BD0494B5B6803F00C03082BF0
:10135C001CD1464B5B6803F48033002B16D1434BF6
:10136C001B6803F00203002B05D07B681B69012B63
:10137C0001D00123BAE13D4B1B6823F0F8027B68D6
:10138C005B69DB00394913430B603AE07B681B69EE
:10139C00002B20D0364B01221A60FFF78DFC3861F0
:1013AC0008E0FFF789FC02463B69D31A022B01D9EE
:1013BC0003239BE12D4B1B6803F00203002BF0D0A1
:1013CC002A4B1B6823F0F8027B685B69DB0027491A
:1013DC0013430B6015E0264B00221A60FFF76CFCE0
:1013EC00386108E0FFF768FC02463B69D31A022B10
:1013FC0001D903237AE11D4B1B6803F00203002B78
:10140C00F0D17B681B6803F00803002B3AD07B6893
:10141C009B69002B19D0174B01221A60FFF74CFC6B
:10142C00386108E0FFF748FC02463B69D31A022BEF
:10143C0001D903235AE10D4B5B6A03F00203002B25
:10144C00F0D0012000F0A6FA1CE00A4B00221A6032
:10145C00FFF732FC38610FE0FFF72EFC02463B69C8
:10146C00D31A022B08D9032340E100BF001002401D
:10147C0000004242800442429E4B5B6A03F002032E
:10148C00002BE9D17B681B6803F00403002B00F0F0
:10149C00A6800023FB75974BDB6903F08053002B70
:1014AC000DD1944BDB69934A43F08053D361914B3C
:1014BC00DB6903F08053BB60BB680123FB758E4B6B
:1014CC001B6803F48073002B18D18B4B1B688A4A62
:1014DC0043F480731360FFF7EFFB386108E0FFF70C
:1014EC00EBFB02463B69D31A642B01D90323FDE0C5
:1014FC00814B1B6803F48073002BF0D07B68DB6896
:10150C00012B06D17B4B1B6A7A4A43F00103136211
:10151C002DE07B68DB68002B0CD1764B1B6A754A7F
:10152C0023F001031362734B1B6A724A23F004030A
:10153C0013621CE07B68DB68052B0CD16D4B1B6ABE
:10154C006C4A43F0040313626A4B1B6A694A43F00A
:10155C00010313620BE0674B1B6A664A23F001031D
:10156C001362644B1B6A634A23F0040313627B68A7
:10157C00DB68002B15D0FFF79FFB38610AE0FFF703
:10158C009BFB02463B69D31A41F28832934201D944
:10159C000323ABE0574B1B6A03F00203002BEED086
:1015AC0014E0FFF789FB38610AE0FFF785FB024680
:1015BC003B69D31A41F28832934201D9032395E057
:1015CC004C4B1B6A03F00203002BEED1FB7D012B6D
:1015DC0005D1484BDB69474A23F08053D3617B68C4
:1015EC00DB69002B00F08180424B5B6803F00C033D
:1015FC00082B61D07B68DB69022B46D13F4B002264
:10160C001A60FFF759FB386108E0FFF755FB0246FB
:10161C003B69D31A022B01D9032367E0354B1B68B6
:10162C0003F00073002BF0D17B681B6AB3F5803F8D
:10163C0008D1304B5B6823F400327B689B682D49E2
:10164C0013434B602B4B5B6823F474127B68196A51
:10165C007B685B6A0B43274913434B60274B012282
:10166C001A60FFF729FB386108E0FFF725FB0246FB
:10167C003B69D31A022B01D9032337E01D4B1B689E
:10168C0003F00073002BF0D02FE01C4B00221A60EB
:10169C00FFF712FB386108E0FFF70EFB02463B69CF
:1016AC00D31A022B01D9032320E0124B1B6803F041
:1016BC000073002BF0D118E07B68DB69012B01D1A2
:1016CC00012313E00B4B5B68FB60FB6803F4803277
:1016DC007B681B6A9A4206D1FB6803F470127B6824
:1016EC005B6A9A4201D0012300E0002318461837A8
:1016FC00BD4680BD001002400070004060004242B8
:10170C0080B584B000AF786039607B68002B01D164
:10171C000123D0E06A4B1B6803F007033A689A4236
:10172C0010D9674B1B6823F0070265493B681343CC
:10173C000B60634B1B6803F007033A689A4201D0B5
:10174C000123B8E07B681B6803F00203002B20D058
:10175C007B681B6803F00403002B05D0594B5B68B6
:10176C00584A43F4E06353607B681B6803F008033A
:10177C00002B05D0534B5B68524A43F460535360C3
:10178C00504B5B6823F0F0027B689B684D49134318
:10179C004B607B681B6803F00103002B40D07B6817
:1017AC005B68012B07D1474B1B6803F40033002BFC
:1017BC0015D101237FE07B685B68022B07D1414B7D
:1017CC001B6803F00073002B09D1012373E03D4B20
:1017DC001B6803F00203002B01D101236BE0394B92
:1017EC005B6823F003027B685B68364913434B60EC
:1017FC00FFF762FAF8600AE0FFF75EFA0246FB6850
:10180C00D31A41F28832934201D9032353E02D4B72
:10181C005B6803F00C027B685B689B009A42EBD11F
:10182C00274B1B6803F007033A689A4210D2244BEB
:10183C001B6823F0070222493B6813430B60204BC3
:10184C001B6803F007033A689A4201D0012332E087
:10185C007B681B6803F00403002B08D0194B5B68F2
:10186C0023F4E0627B68DB68164913434B607B68AA
:10187C001B6803F00803002B09D0124B5B6823F4A0
:10188C0060527B681B69DB000E4913434B6000F010
:10189C0021F802460B4B5B681B0903F00F030A4946
:1018AC00CB5C22FA03F3094A1360094B1B681846F8
:1018BC00FFF7C0F9002318461037BD4680BD00BFA6
:1018CC0000200240001002405C1A000800000020BA
:1018DC000400002090B48AB000AF2A4B3C1D0FCB03
:1018EC0084E80F0040F201233B800023FB610023BE
:1018FC00BB6100237B6200237B6100233B62224B94
:10190C005B68FB61FB6903F00C03042B02D0082B12
:10191C0003D02DE01D4B3B622DE0FB699B0C03F0CB
:10192C000F0307F12802134413F8243C7B61FB6975
:10193C0003F48033002B13D0134B5B685B0C03F068
:10194C00010307F12802134413F8283CBB617B699F
:10195C000E4A02FB03F2BB69B2FBF3F37B6204E0B9
:10196C007B690B4A02FB03F37B627B6A3B6202E0FE
:10197C00064B3B6200BF3B6A18462837BD4690BCFD
:10198C00704700BF4C1A00080010024000127A0089
:10199C0000093D0080B485B000AF78600A4B1B682D
:1019AC000A4AA2FB03235B0A7A6802FB03F3FB607F
:1019BC0000BFFB685A1EFA60002BF9D100BF00BFB4
:1019CC001437BD4680BC704700000020D34D621018
:1019DC0070B500260C4D0D4C641BA410A64209D109
:1019EC0000F022F800260A4D0A4C641BA410A642F3
:1019FC0005D170BD55F8043B98470136EEE755F814
:101A0C00043B98470136F2E76C1A00086C1A000880
:101A1C006C1A0008701A000803460244934200D165
:101A2C00704703F8011BF9E7F8B500BFF8BC08BC18
:101A3C009E467047F8B500BFF8BC08BC9E46704780
:101A4C0002030405060708090A0B0C0D0E0F1010F3
:101A5C000000000000000000010203040607080952
:041A6C00310100083C
:041A70000D0100085C
:0C1A74000024F40010000000010000003D
:0400000508000BC91B
:00000001FF
